{
  "_format": "hh-sol-artifact-1",
  "contractName": "VerifyWorldID",
  "sourceName": "contracts/WorldID.sol",
  "abi": [
    {
      "inputs": [
        {
          "internalType": "contract IWorldID",
          "name": "_worldId",
          "type": "address"
        },
        {
          "internalType": "string",
          "name": "_appId",
          "type": "string"
        },
        {
          "internalType": "string",
          "name": "_actionId",
          "type": "string"
        }
      ],
      "stateMutability": "nonpayable",
      "type": "constructor"
    },
    {
      "inputs": [
        {
          "internalType": "uint256",
          "name": "nullifierHash",
          "type": "uint256"
        }
      ],
      "name": "DuplicateNullifier",
      "type": "error"
    },
    {
      "anonymous": false,
      "inputs": [
        {
          "indexed": false,
          "internalType": "uint256",
          "name": "nullifierHash",
          "type": "uint256"
        }
      ],
      "name": "Verified",
      "type": "event"
    },
    {
      "inputs": [
        {
          "internalType": "address",
          "name": "",
          "type": "address"
        }
      ],
      "name": "isVerifiedHuman",
      "outputs": [
        {
          "internalType": "bool",
          "name": "",
          "type": "bool"
        }
      ],
      "stateMutability": "view",
      "type": "function"
    },
    {
      "inputs": [
        {
          "internalType": "address",
          "name": "signal",
          "type": "address"
        },
        {
          "internalType": "uint256",
          "name": "root",
          "type": "uint256"
        },
        {
          "internalType": "uint256",
          "name": "nullifierHash",
          "type": "uint256"
        },
        {
          "internalType": "uint256[8]",
          "name": "proof",
          "type": "uint256[8]"
        }
      ],
      "name": "verifyHuman",
      "outputs": [],
      "stateMutability": "nonpayable",
      "type": "function"
    }
  ],
  "bytecode": "0x60e0604052600160c0908152503480156200001957600080fd5b5060405162000b6838038062000b6883398181016040528101906200003f91906200032d565b8273ffffffffffffffffffffffffffffffffffffffff1660808173ffffffffffffffffffffffffffffffffffffffff1681525050620000d8620000a9836040516020016200008e919062000414565b604051602081830303815290604052620000e860201b60201c565b82604051602001620000bd9291906200045c565b604051602081830303815290604052620000e860201b60201c565b60a08181525050505050620004ee565b6000600882604051602001620000ff9190620004d5565b6040516020818303038152906040528051906020012060001c901c9050919050565b6000604051905090565b600080fd5b600080fd5b600073ffffffffffffffffffffffffffffffffffffffff82169050919050565b6000620001628262000135565b9050919050565b6000620001768262000155565b9050919050565b620001888162000169565b81146200019457600080fd5b50565b600081519050620001a8816200017d565b92915050565b600080fd5b600080fd5b6000601f19601f8301169050919050565b7f4e487b7100000000000000000000000000000000000000000000000000000000600052604160045260246000fd5b6200020382620001b8565b810181811067ffffffffffffffff82111715620002255762000224620001c9565b5b80604052505050565b60006200023a62000121565b9050620002488282620001f8565b919050565b600067ffffffffffffffff8211156200026b576200026a620001c9565b5b6200027682620001b8565b9050602081019050919050565b60005b83811015620002a357808201518184015260208101905062000286565b60008484015250505050565b6000620002c6620002c0846200024d565b6200022e565b905082815260208101848484011115620002e557620002e4620001b3565b5b620002f284828562000283565b509392505050565b600082601f830112620003125762000311620001ae565b5b815162000324848260208601620002af565b91505092915050565b6000806000606084860312156200034957620003486200012b565b5b6000620003598682870162000197565b935050602084015167ffffffffffffffff8111156200037d576200037c62000130565b5b6200038b86828701620002fa565b925050604084015167ffffffffffffffff811115620003af57620003ae62000130565b5b620003bd86828701620002fa565b9150509250925092565b600081519050919050565b600081905092915050565b6000620003ea82620003c7565b620003f68185620003d2565b93506200040881856020860162000283565b80840191505092915050565b6000620004228284620003dd565b915081905092915050565b6000819050919050565b6000819050919050565b6200045662000450826200042d565b62000437565b82525050565b60006200046a828562000441565b6020820191506200047c8284620003dd565b91508190509392505050565b600081519050919050565b600081905092915050565b6000620004ab8262000488565b620004b7818562000493565b9350620004c981856020860162000283565b80840191505092915050565b6000620004e382846200049e565b915081905092915050565b60805160a05160c05161064a6200051e6000396000610147015260006101910152600061010a015261064a6000f3fe608060405234801561001057600080fd5b50600436106100355760003560e01c806263fa271461003a57806303c44e291461006a575b600080fd5b610054600480360381019061004f919061035b565b610086565b60405161006191906103a3565b60405180910390f35b610084600480360381019061007f919061041b565b6100a6565b005b60016020528060005260406000206000915054906101000a900460ff1681565b60008083815260200190815260200160002060009054906101000a900460ff161561010857816040517f78ffaa260000000000000000000000000000000000000000000000000000000081526004016100ff9190610492565b60405180910390fd5b7f000000000000000000000000000000000000000000000000000000000000000073ffffffffffffffffffffffffffffffffffffffff16633bc778e3847f000000000000000000000000000000000000000000000000000000000000000061018e8860405160200161017a91906104f5565b6040516020818303038152906040526102c1565b867f0000000000000000000000000000000000000000000000000000000000000000876040518763ffffffff1660e01b81526004016101d29695949392919061052a565b60006040518083038186803b1580156101ea57600080fd5b505afa1580156101fe573d6000803e3d6000fd5b50505050600160008084815260200190815260200160002060006101000a81548160ff02191690831515021790555060018060008673ffffffffffffffffffffffffffffffffffffffff1673ffffffffffffffffffffffffffffffffffffffff16815260200190815260200160002060006101000a81548160ff0219169083151502179055507ff786e7f77ede00a02a5464f8f0555798f42ba99a4a920ef2778db8d75e4656f7826040516102b39190610492565b60405180910390a150505050565b60006008826040516020016102d691906105fd565b6040516020818303038152906040528051906020012060001c901c9050919050565b600080fd5b600073ffffffffffffffffffffffffffffffffffffffff82169050919050565b6000610328826102fd565b9050919050565b6103388161031d565b811461034357600080fd5b50565b6000813590506103558161032f565b92915050565b600060208284031215610371576103706102f8565b5b600061037f84828501610346565b91505092915050565b60008115159050919050565b61039d81610388565b82525050565b60006020820190506103b86000830184610394565b92915050565b6000819050919050565b6103d1816103be565b81146103dc57600080fd5b50565b6000813590506103ee816103c8565b92915050565b600080fd5b600081905082602060080282011115610415576104146103f4565b5b92915050565b6000806000806101608587031215610436576104356102f8565b5b600061044487828801610346565b9450506020610455878288016103df565b9350506040610466878288016103df565b9250506060610477878288016103f9565b91505092959194509250565b61048c816103be565b82525050565b60006020820190506104a76000830184610483565b92915050565b60008160601b9050919050565b60006104c5826104ad565b9050919050565b60006104d7826104ba565b9050919050565b6104ef6104ea8261031d565b6104cc565b82525050565b600061050182846104de565b60148201915081905092915050565b82818337505050565b6105266101008383610510565b5050565b60006101a0820190506105406000830189610483565b61054d6020830188610483565b61055a6040830187610483565b6105676060830186610483565b6105746080830185610483565b61058160a0830184610519565b979650505050505050565b600081519050919050565b600081905092915050565b60005b838110156105c05780820151818401526020810190506105a5565b60008484015250505050565b60006105d78261058c565b6105e18185610597565b93506105f18185602086016105a2565b80840191505092915050565b600061060982846105cc565b91508190509291505056fea2646970667358221220bfae24462d69814d81dcd1b46c2f1e80be58def14c5ef8bc7384ddb34b449e8864736f6c63430008180033",
  "linkReferences": {},
  "deployedLinkReferences": {}
}