{"contracts/WorldID.sol":{"VerifyWorldID":{"abi":[{"inputs":[{"internalType":"contract IWorldID","name":"_worldId","type":"address"},{"internalType":"string","name":"_appId","type":"string"},{"internalType":"string","name":"_actionId","type":"string"}],"stateMutability":"nonpayable","type":"constructor"},{"inputs":[{"internalType":"uint256","name":"nullifierHash","type":"uint256"}],"name":"DuplicateNullifier","type":"error"},{"anonymous":false,"inputs":[{"indexed":false,"internalType":"uint256","name":"nullifierHash","type":"uint256"}],"name":"Verified","type":"event"},{"inputs":[{"internalType":"address","name":"","type":"address"}],"name":"isVerifiedHuman","outputs":[{"internalType":"bool","name":"","type":"bool"}],"stateMutability":"view","type":"function"},{"inputs":[{"internalType":"address","name":"signal","type":"address"},{"internalType":"uint256","name":"root","type":"uint256"},{"internalType":"uint256","name":"nullifierHash","type":"uint256"},{"internalType":"uint256[8]","name":"proof","type":"uint256[8]"}],"name":"verifyHuman","outputs":[],"stateMutability":"nonpayable","type":"function"}],"evm":{"bytecode":{"linkReferences":{},"object":"60e0604052600160c0908152503480156200001957600080fd5b5060405162000b6838038062000b6883398181016040528101906200003f91906200032d565b8273ffffffffffffffffffffffffffffffffffffffff1660808173ffffffffffffffffffffffffffffffffffffffff1681525050620000d8620000a9836040516020016200008e919062000414565b604051602081830303815290604052620000e860201b60201c565b82604051602001620000bd9291906200045c565b604051602081830303815290604052620000e860201b60201c565b60a08181525050505050620004ee565b6000600882604051602001620000ff9190620004d5565b6040516020818303038152906040528051906020012060001c901c9050919050565b6000604051905090565b600080fd5b600080fd5b600073ffffffffffffffffffffffffffffffffffffffff82169050919050565b6000620001628262000135565b9050919050565b6000620001768262000155565b9050919050565b620001888162000169565b81146200019457600080fd5b50565b600081519050620001a8816200017d565b92915050565b600080fd5b600080fd5b6000601f19601f8301169050919050565b7f4e487b7100000000000000000000000000000000000000000000000000000000600052604160045260246000fd5b6200020382620001b8565b810181811067ffffffffffffffff82111715620002255762000224620001c9565b5b80604052505050565b60006200023a62000121565b9050620002488282620001f8565b919050565b600067ffffffffffffffff8211156200026b576200026a620001c9565b5b6200027682620001b8565b9050602081019050919050565b60005b83811015620002a357808201518184015260208101905062000286565b60008484015250505050565b6000620002c6620002c0846200024d565b6200022e565b905082815260208101848484011115620002e557620002e4620001b3565b5b620002f284828562000283565b509392505050565b600082601f830112620003125762000311620001ae565b5b815162000324848260208601620002af565b91505092915050565b6000806000606084860312156200034957620003486200012b565b5b6000620003598682870162000197565b935050602084015167ffffffffffffffff8111156200037d576200037c62000130565b5b6200038b86828701620002fa565b925050604084015167ffffffffffffffff811115620003af57620003ae62000130565b5b620003bd86828701620002fa565b9150509250925092565b600081519050919050565b600081905092915050565b6000620003ea82620003c7565b620003f68185620003d2565b93506200040881856020860162000283565b80840191505092915050565b6000620004228284620003dd565b915081905092915050565b6000819050919050565b6000819050919050565b6200045662000450826200042d565b62000437565b82525050565b60006200046a828562000441565b6020820191506200047c8284620003dd565b91508190509392505050565b600081519050919050565b600081905092915050565b6000620004ab8262000488565b620004b7818562000493565b9350620004c981856020860162000283565b80840191505092915050565b6000620004e382846200049e565b915081905092915050565b60805160a05160c05161064a6200051e6000396000610147015260006101910152600061010a015261064a6000f3fe608060405234801561001057600080fd5b50600436106100355760003560e01c806263fa271461003a57806303c44e291461006a575b600080fd5b610054600480360381019061004f919061035b565b610086565b60405161006191906103a3565b60405180910390f35b610084600480360381019061007f919061041b565b6100a6565b005b60016020528060005260406000206000915054906101000a900460ff1681565b60008083815260200190815260200160002060009054906101000a900460ff161561010857816040517f78ffaa260000000000000000000000000000000000000000000000000000000081526004016100ff9190610492565b60405180910390fd5b7f000000000000000000000000000000000000000000000000000000000000000073ffffffffffffffffffffffffffffffffffffffff16633bc778e3847f000000000000000000000000000000000000000000000000000000000000000061018e8860405160200161017a91906104f5565b6040516020818303038152906040526102c1565b867f0000000000000000000000000000000000000000000000000000000000000000876040518763ffffffff1660e01b81526004016101d29695949392919061052a565b60006040518083038186803b1580156101ea57600080fd5b505afa1580156101fe573d6000803e3d6000fd5b50505050600160008084815260200190815260200160002060006101000a81548160ff02191690831515021790555060018060008673ffffffffffffffffffffffffffffffffffffffff1673ffffffffffffffffffffffffffffffffffffffff16815260200190815260200160002060006101000a81548160ff0219169083151502179055507ff786e7f77ede00a02a5464f8f0555798f42ba99a4a920ef2778db8d75e4656f7826040516102b39190610492565b60405180910390a150505050565b60006008826040516020016102d691906105fd565b6040516020818303038152906040528051906020012060001c901c9050919050565b600080fd5b600073ffffffffffffffffffffffffffffffffffffffff82169050919050565b6000610328826102fd565b9050919050565b6103388161031d565b811461034357600080fd5b50565b6000813590506103558161032f565b92915050565b600060208284031215610371576103706102f8565b5b600061037f84828501610346565b91505092915050565b60008115159050919050565b61039d81610388565b82525050565b60006020820190506103b86000830184610394565b92915050565b6000819050919050565b6103d1816103be565b81146103dc57600080fd5b50565b6000813590506103ee816103c8565b92915050565b600080fd5b600081905082602060080282011115610415576104146103f4565b5b92915050565b6000806000806101608587031215610436576104356102f8565b5b600061044487828801610346565b9450506020610455878288016103df565b9350506040610466878288016103df565b9250506060610477878288016103f9565b91505092959194509250565b61048c816103be565b82525050565b60006020820190506104a76000830184610483565b92915050565b60008160601b9050919050565b60006104c5826104ad565b9050919050565b60006104d7826104ba565b9050919050565b6104ef6104ea8261031d565b6104cc565b82525050565b600061050182846104de565b60148201915081905092915050565b82818337505050565b6105266101008383610510565b5050565b60006101a0820190506105406000830189610483565b61054d6020830188610483565b61055a6040830187610483565b6105676060830186610483565b6105746080830185610483565b61058160a0830184610519565b979650505050505050565b600081519050919050565b600081905092915050565b60005b838110156105c05780820151818401526020810190506105a5565b60008484015250505050565b60006105d78261058c565b6105e18185610597565b93506105f18185602086016105a2565b80840191505092915050565b600061060982846105cc565b91508190509291505056fea2646970667358221220bfae24462d69814d81dcd1b46c2f1e80be58def14c5ef8bc7384ddb34b449e8864736f6c63430008180033","opcodes":"PUSH1 0xE0 PUSH1 0x40 MSTORE PUSH1 0x1 PUSH1 0xC0 SWAP1 DUP2 MSTORE POP CALLVALUE DUP1 ISZERO PUSH3 0x19 JUMPI PUSH1 0x0 DUP1 REVERT JUMPDEST POP PUSH1 0x40 MLOAD PUSH3 0xB68 CODESIZE SUB DUP1 PUSH3 0xB68 DUP4 CODECOPY DUP2 DUP2 ADD PUSH1 0x40 MSTORE DUP2 ADD SWAP1 PUSH3 0x3F SWAP2 SWAP1 PUSH3 0x32D JUMP JUMPDEST DUP3 PUSH20 0xFFFFFFFFFFFFFFFFFFFFFFFFFFFFFFFFFFFFFFFF AND PUSH1 0x80 DUP2 PUSH20 0xFFFFFFFFFFFFFFFFFFFFFFFFFFFFFFFFFFFFFFFF AND DUP2 MSTORE POP POP PUSH3 0xD8 PUSH3 0xA9 DUP4 PUSH1 0x40 MLOAD PUSH1 0x20 ADD PUSH3 0x8E SWAP2 SWAP1 PUSH3 0x414 JUMP JUMPDEST PUSH1 0x40 MLOAD PUSH1 0x20 DUP2 DUP4 SUB SUB DUP2 MSTORE SWAP1 PUSH1 0x40 MSTORE PUSH3 0xE8 PUSH1 0x20 SHL PUSH1 0x20 SHR JUMP JUMPDEST DUP3 PUSH1 0x40 MLOAD PUSH1 0x20 ADD PUSH3 0xBD SWAP3 SWAP2 SWAP1 PUSH3 0x45C JUMP JUMPDEST PUSH1 0x40 MLOAD PUSH1 0x20 DUP2 DUP4 SUB SUB DUP2 MSTORE SWAP1 PUSH1 0x40 MSTORE PUSH3 0xE8 PUSH1 0x20 SHL PUSH1 0x20 SHR JUMP JUMPDEST PUSH1 0xA0 DUP2 DUP2 MSTORE POP POP POP POP POP PUSH3 0x4EE JUMP JUMPDEST PUSH1 0x0 PUSH1 0x8 DUP3 PUSH1 0x40 MLOAD PUSH1 0x20 ADD PUSH3 0xFF SWAP2 SWAP1 PUSH3 0x4D5 JUMP JUMPDEST PUSH1 0x40 MLOAD PUSH1 0x20 DUP2 DUP4 SUB SUB DUP2 MSTORE SWAP1 PUSH1 0x40 MSTORE DUP1 MLOAD SWAP1 PUSH1 0x20 ADD KECCAK256 PUSH1 0x0 SHR SWAP1 SHR SWAP1 POP SWAP2 SWAP1 POP JUMP JUMPDEST PUSH1 0x0 PUSH1 0x40 MLOAD SWAP1 POP SWAP1 JUMP JUMPDEST PUSH1 0x0 DUP1 REVERT JUMPDEST PUSH1 0x0 DUP1 REVERT JUMPDEST PUSH1 0x0 PUSH20 0xFFFFFFFFFFFFFFFFFFFFFFFFFFFFFFFFFFFFFFFF DUP3 AND SWAP1 POP SWAP2 SWAP1 POP JUMP JUMPDEST PUSH1 0x0 PUSH3 0x162 DUP3 PUSH3 0x135 JUMP JUMPDEST SWAP1 POP SWAP2 SWAP1 POP JUMP JUMPDEST PUSH1 0x0 PUSH3 0x176 DUP3 PUSH3 0x155 JUMP JUMPDEST SWAP1 POP SWAP2 SWAP1 POP JUMP JUMPDEST PUSH3 0x188 DUP2 PUSH3 0x169 JUMP JUMPDEST DUP2 EQ PUSH3 0x194 JUMPI PUSH1 0x0 DUP1 REVERT JUMPDEST POP JUMP JUMPDEST PUSH1 0x0 DUP2 MLOAD SWAP1 POP PUSH3 0x1A8 DUP2 PUSH3 0x17D JUMP JUMPDEST SWAP3 SWAP2 POP POP JUMP JUMPDEST PUSH1 0x0 DUP1 REVERT JUMPDEST PUSH1 0x0 DUP1 REVERT JUMPDEST PUSH1 0x0 PUSH1 0x1F NOT PUSH1 0x1F DUP4 ADD AND SWAP1 POP SWAP2 SWAP1 POP JUMP JUMPDEST PUSH32 0x4E487B7100000000000000000000000000000000000000000000000000000000 PUSH1 0x0 MSTORE PUSH1 0x41 PUSH1 0x4 MSTORE PUSH1 0x24 PUSH1 0x0 REVERT JUMPDEST PUSH3 0x203 DUP3 PUSH3 0x1B8 JUMP JUMPDEST DUP2 ADD DUP2 DUP2 LT PUSH8 0xFFFFFFFFFFFFFFFF DUP3 GT OR ISZERO PUSH3 0x225 JUMPI PUSH3 0x224 PUSH3 0x1C9 JUMP JUMPDEST JUMPDEST DUP1 PUSH1 0x40 MSTORE POP POP POP JUMP JUMPDEST PUSH1 0x0 PUSH3 0x23A PUSH3 0x121 JUMP JUMPDEST SWAP1 POP PUSH3 0x248 DUP3 DUP3 PUSH3 0x1F8 JUMP JUMPDEST SWAP2 SWAP1 POP JUMP JUMPDEST PUSH1 0x0 PUSH8 0xFFFFFFFFFFFFFFFF DUP3 GT ISZERO PUSH3 0x26B JUMPI PUSH3 0x26A PUSH3 0x1C9 JUMP JUMPDEST JUMPDEST PUSH3 0x276 DUP3 PUSH3 0x1B8 JUMP JUMPDEST SWAP1 POP PUSH1 0x20 DUP2 ADD SWAP1 POP SWAP2 SWAP1 POP JUMP JUMPDEST PUSH1 0x0 JUMPDEST DUP4 DUP2 LT ISZERO PUSH3 0x2A3 JUMPI DUP1 DUP3 ADD MLOAD DUP2 DUP5 ADD MSTORE PUSH1 0x20 DUP2 ADD SWAP1 POP PUSH3 0x286 JUMP JUMPDEST PUSH1 0x0 DUP5 DUP5 ADD MSTORE POP POP POP POP JUMP JUMPDEST PUSH1 0x0 PUSH3 0x2C6 PUSH3 0x2C0 DUP5 PUSH3 0x24D JUMP JUMPDEST PUSH3 0x22E JUMP JUMPDEST SWAP1 POP DUP3 DUP2 MSTORE PUSH1 0x20 DUP2 ADD DUP5 DUP5 DUP5 ADD GT ISZERO PUSH3 0x2E5 JUMPI PUSH3 0x2E4 PUSH3 0x1B3 JUMP JUMPDEST JUMPDEST PUSH3 0x2F2 DUP5 DUP3 DUP6 PUSH3 0x283 JUMP JUMPDEST POP SWAP4 SWAP3 POP POP POP JUMP JUMPDEST PUSH1 0x0 DUP3 PUSH1 0x1F DUP4 ADD SLT PUSH3 0x312 JUMPI PUSH3 0x311 PUSH3 0x1AE JUMP JUMPDEST JUMPDEST DUP2 MLOAD PUSH3 0x324 DUP5 DUP3 PUSH1 0x20 DUP7 ADD PUSH3 0x2AF JUMP JUMPDEST SWAP2 POP POP SWAP3 SWAP2 POP POP JUMP JUMPDEST PUSH1 0x0 DUP1 PUSH1 0x0 PUSH1 0x60 DUP5 DUP7 SUB SLT ISZERO PUSH3 0x349 JUMPI PUSH3 0x348 PUSH3 0x12B JUMP JUMPDEST JUMPDEST PUSH1 0x0 PUSH3 0x359 DUP7 DUP3 DUP8 ADD PUSH3 0x197 JUMP JUMPDEST SWAP4 POP POP PUSH1 0x20 DUP5 ADD MLOAD PUSH8 0xFFFFFFFFFFFFFFFF DUP2 GT ISZERO PUSH3 0x37D JUMPI PUSH3 0x37C PUSH3 0x130 JUMP JUMPDEST JUMPDEST PUSH3 0x38B DUP7 DUP3 DUP8 ADD PUSH3 0x2FA JUMP JUMPDEST SWAP3 POP POP PUSH1 0x40 DUP5 ADD MLOAD PUSH8 0xFFFFFFFFFFFFFFFF DUP2 GT ISZERO PUSH3 0x3AF JUMPI PUSH3 0x3AE PUSH3 0x130 JUMP JUMPDEST JUMPDEST PUSH3 0x3BD DUP7 DUP3 DUP8 ADD PUSH3 0x2FA JUMP JUMPDEST SWAP2 POP POP SWAP3 POP SWAP3 POP SWAP3 JUMP JUMPDEST PUSH1 0x0 DUP2 MLOAD SWAP1 POP SWAP2 SWAP1 POP JUMP JUMPDEST PUSH1 0x0 DUP2 SWAP1 POP SWAP3 SWAP2 POP POP JUMP JUMPDEST PUSH1 0x0 PUSH3 0x3EA DUP3 PUSH3 0x3C7 JUMP JUMPDEST PUSH3 0x3F6 DUP2 DUP6 PUSH3 0x3D2 JUMP JUMPDEST SWAP4 POP PUSH3 0x408 DUP2 DUP6 PUSH1 0x20 DUP7 ADD PUSH3 0x283 JUMP JUMPDEST DUP1 DUP5 ADD SWAP2 POP POP SWAP3 SWAP2 POP POP JUMP JUMPDEST PUSH1 0x0 PUSH3 0x422 DUP3 DUP5 PUSH3 0x3DD JUMP JUMPDEST SWAP2 POP DUP2 SWAP1 POP SWAP3 SWAP2 POP POP JUMP JUMPDEST PUSH1 0x0 DUP2 SWAP1 POP SWAP2 SWAP1 POP JUMP JUMPDEST PUSH1 0x0 DUP2 SWAP1 POP SWAP2 SWAP1 POP JUMP JUMPDEST PUSH3 0x456 PUSH3 0x450 DUP3 PUSH3 0x42D JUMP JUMPDEST PUSH3 0x437 JUMP JUMPDEST DUP3 MSTORE POP POP JUMP JUMPDEST PUSH1 0x0 PUSH3 0x46A DUP3 DUP6 PUSH3 0x441 JUMP JUMPDEST PUSH1 0x20 DUP3 ADD SWAP2 POP PUSH3 0x47C DUP3 DUP5 PUSH3 0x3DD JUMP JUMPDEST SWAP2 POP DUP2 SWAP1 POP SWAP4 SWAP3 POP POP POP JUMP JUMPDEST PUSH1 0x0 DUP2 MLOAD SWAP1 POP SWAP2 SWAP1 POP JUMP JUMPDEST PUSH1 0x0 DUP2 SWAP1 POP SWAP3 SWAP2 POP POP JUMP JUMPDEST PUSH1 0x0 PUSH3 0x4AB DUP3 PUSH3 0x488 JUMP JUMPDEST PUSH3 0x4B7 DUP2 DUP6 PUSH3 0x493 JUMP JUMPDEST SWAP4 POP PUSH3 0x4C9 DUP2 DUP6 PUSH1 0x20 DUP7 ADD PUSH3 0x283 JUMP JUMPDEST DUP1 DUP5 ADD SWAP2 POP POP SWAP3 SWAP2 POP POP JUMP JUMPDEST PUSH1 0x0 PUSH3 0x4E3 DUP3 DUP5 PUSH3 0x49E JUMP JUMPDEST SWAP2 POP DUP2 SWAP1 POP SWAP3 SWAP2 POP POP JUMP JUMPDEST PUSH1 0x80 MLOAD PUSH1 0xA0 MLOAD PUSH1 0xC0 MLOAD PUSH2 0x64A PUSH3 0x51E PUSH1 0x0 CODECOPY PUSH1 0x0 PUSH2 0x147 ADD MSTORE PUSH1 0x0 PUSH2 0x191 ADD MSTORE PUSH1 0x0 PUSH2 0x10A ADD MSTORE PUSH2 0x64A PUSH1 0x0 RETURN INVALID PUSH1 0x80 PUSH1 0x40 MSTORE CALLVALUE DUP1 ISZERO PUSH2 0x10 JUMPI PUSH1 0x0 DUP1 REVERT JUMPDEST POP PUSH1 0x4 CALLDATASIZE LT PUSH2 0x35 JUMPI PUSH1 0x0 CALLDATALOAD PUSH1 0xE0 SHR DUP1 PUSH3 0x63FA27 EQ PUSH2 0x3A JUMPI DUP1 PUSH4 0x3C44E29 EQ PUSH2 0x6A JUMPI JUMPDEST PUSH1 0x0 DUP1 REVERT JUMPDEST PUSH2 0x54 PUSH1 0x4 DUP1 CALLDATASIZE SUB DUP2 ADD SWAP1 PUSH2 0x4F SWAP2 SWAP1 PUSH2 0x35B JUMP JUMPDEST PUSH2 0x86 JUMP JUMPDEST PUSH1 0x40 MLOAD PUSH2 0x61 SWAP2 SWAP1 PUSH2 0x3A3 JUMP JUMPDEST PUSH1 0x40 MLOAD DUP1 SWAP2 SUB SWAP1 RETURN JUMPDEST PUSH2 0x84 PUSH1 0x4 DUP1 CALLDATASIZE SUB DUP2 ADD SWAP1 PUSH2 0x7F SWAP2 SWAP1 PUSH2 0x41B JUMP JUMPDEST PUSH2 0xA6 JUMP JUMPDEST STOP JUMPDEST PUSH1 0x1 PUSH1 0x20 MSTORE DUP1 PUSH1 0x0 MSTORE PUSH1 0x40 PUSH1 0x0 KECCAK256 PUSH1 0x0 SWAP2 POP SLOAD SWAP1 PUSH2 0x100 EXP SWAP1 DIV PUSH1 0xFF AND DUP2 JUMP JUMPDEST PUSH1 0x0 DUP1 DUP4 DUP2 MSTORE PUSH1 0x20 ADD SWAP1 DUP2 MSTORE PUSH1 0x20 ADD PUSH1 0x0 KECCAK256 PUSH1 0x0 SWAP1 SLOAD SWAP1 PUSH2 0x100 EXP SWAP1 DIV PUSH1 0xFF AND ISZERO PUSH2 0x108 JUMPI DUP2 PUSH1 0x40 MLOAD PUSH32 0x78FFAA2600000000000000000000000000000000000000000000000000000000 DUP2 MSTORE PUSH1 0x4 ADD PUSH2 0xFF SWAP2 SWAP1 PUSH2 0x492 JUMP JUMPDEST PUSH1 0x40 MLOAD DUP1 SWAP2 SUB SWAP1 REVERT JUMPDEST PUSH32 0x0 PUSH20 0xFFFFFFFFFFFFFFFFFFFFFFFFFFFFFFFFFFFFFFFF AND PUSH4 0x3BC778E3 DUP5 PUSH32 0x0 PUSH2 0x18E DUP9 PUSH1 0x40 MLOAD PUSH1 0x20 ADD PUSH2 0x17A SWAP2 SWAP1 PUSH2 0x4F5 JUMP JUMPDEST PUSH1 0x40 MLOAD PUSH1 0x20 DUP2 DUP4 SUB SUB DUP2 MSTORE SWAP1 PUSH1 0x40 MSTORE PUSH2 0x2C1 JUMP JUMPDEST DUP7 PUSH32 0x0 DUP8 PUSH1 0x40 MLOAD DUP8 PUSH4 0xFFFFFFFF AND PUSH1 0xE0 SHL DUP2 MSTORE PUSH1 0x4 ADD PUSH2 0x1D2 SWAP7 SWAP6 SWAP5 SWAP4 SWAP3 SWAP2 SWAP1 PUSH2 0x52A JUMP JUMPDEST PUSH1 0x0 PUSH1 0x40 MLOAD DUP1 DUP4 SUB DUP2 DUP7 DUP1 EXTCODESIZE ISZERO DUP1 ISZERO PUSH2 0x1EA JUMPI PUSH1 0x0 DUP1 REVERT JUMPDEST POP GAS STATICCALL ISZERO DUP1 ISZERO PUSH2 0x1FE JUMPI RETURNDATASIZE PUSH1 0x0 DUP1 RETURNDATACOPY RETURNDATASIZE PUSH1 0x0 REVERT JUMPDEST POP POP POP POP PUSH1 0x1 PUSH1 0x0 DUP1 DUP5 DUP2 MSTORE PUSH1 0x20 ADD SWAP1 DUP2 MSTORE PUSH1 0x20 ADD PUSH1 0x0 KECCAK256 PUSH1 0x0 PUSH2 0x100 EXP DUP2 SLOAD DUP2 PUSH1 0xFF MUL NOT AND SWAP1 DUP4 ISZERO ISZERO MUL OR SWAP1 SSTORE POP PUSH1 0x1 DUP1 PUSH1 0x0 DUP7 PUSH20 0xFFFFFFFFFFFFFFFFFFFFFFFFFFFFFFFFFFFFFFFF AND PUSH20 0xFFFFFFFFFFFFFFFFFFFFFFFFFFFFFFFFFFFFFFFF AND DUP2 MSTORE PUSH1 0x20 ADD SWAP1 DUP2 MSTORE PUSH1 0x20 ADD PUSH1 0x0 KECCAK256 PUSH1 0x0 PUSH2 0x100 EXP DUP2 SLOAD DUP2 PUSH1 0xFF MUL NOT AND SWAP1 DUP4 ISZERO ISZERO MUL OR SWAP1 SSTORE POP PUSH32 0xF786E7F77EDE00A02A5464F8F0555798F42BA99A4A920EF2778DB8D75E4656F7 DUP3 PUSH1 0x40 MLOAD PUSH2 0x2B3 SWAP2 SWAP1 PUSH2 0x492 JUMP JUMPDEST PUSH1 0x40 MLOAD DUP1 SWAP2 SUB SWAP1 LOG1 POP POP POP POP JUMP JUMPDEST PUSH1 0x0 PUSH1 0x8 DUP3 PUSH1 0x40 MLOAD PUSH1 0x20 ADD PUSH2 0x2D6 SWAP2 SWAP1 PUSH2 0x5FD JUMP JUMPDEST PUSH1 0x40 MLOAD PUSH1 0x20 DUP2 DUP4 SUB SUB DUP2 MSTORE SWAP1 PUSH1 0x40 MSTORE DUP1 MLOAD SWAP1 PUSH1 0x20 ADD KECCAK256 PUSH1 0x0 SHR SWAP1 SHR SWAP1 POP SWAP2 SWAP1 POP JUMP JUMPDEST PUSH1 0x0 DUP1 REVERT JUMPDEST PUSH1 0x0 PUSH20 0xFFFFFFFFFFFFFFFFFFFFFFFFFFFFFFFFFFFFFFFF DUP3 AND SWAP1 POP SWAP2 SWAP1 POP JUMP JUMPDEST PUSH1 0x0 PUSH2 0x328 DUP3 PUSH2 0x2FD JUMP JUMPDEST SWAP1 POP SWAP2 SWAP1 POP JUMP JUMPDEST PUSH2 0x338 DUP2 PUSH2 0x31D JUMP JUMPDEST DUP2 EQ PUSH2 0x343 JUMPI PUSH1 0x0 DUP1 REVERT JUMPDEST POP JUMP JUMPDEST PUSH1 0x0 DUP2 CALLDATALOAD SWAP1 POP PUSH2 0x355 DUP2 PUSH2 0x32F JUMP JUMPDEST SWAP3 SWAP2 POP POP JUMP JUMPDEST PUSH1 0x0 PUSH1 0x20 DUP3 DUP5 SUB SLT ISZERO PUSH2 0x371 JUMPI PUSH2 0x370 PUSH2 0x2F8 JUMP JUMPDEST JUMPDEST PUSH1 0x0 PUSH2 0x37F DUP5 DUP3 DUP6 ADD PUSH2 0x346 JUMP JUMPDEST SWAP2 POP POP SWAP3 SWAP2 POP POP JUMP JUMPDEST PUSH1 0x0 DUP2 ISZERO ISZERO SWAP1 POP SWAP2 SWAP1 POP JUMP JUMPDEST PUSH2 0x39D DUP2 PUSH2 0x388 JUMP JUMPDEST DUP3 MSTORE POP POP JUMP JUMPDEST PUSH1 0x0 PUSH1 0x20 DUP3 ADD SWAP1 POP PUSH2 0x3B8 PUSH1 0x0 DUP4 ADD DUP5 PUSH2 0x394 JUMP JUMPDEST SWAP3 SWAP2 POP POP JUMP JUMPDEST PUSH1 0x0 DUP2 SWAP1 POP SWAP2 SWAP1 POP JUMP JUMPDEST PUSH2 0x3D1 DUP2 PUSH2 0x3BE JUMP JUMPDEST DUP2 EQ PUSH2 0x3DC JUMPI PUSH1 0x0 DUP1 REVERT JUMPDEST POP JUMP JUMPDEST PUSH1 0x0 DUP2 CALLDATALOAD SWAP1 POP PUSH2 0x3EE DUP2 PUSH2 0x3C8 JUMP JUMPDEST SWAP3 SWAP2 POP POP JUMP JUMPDEST PUSH1 0x0 DUP1 REVERT JUMPDEST PUSH1 0x0 DUP2 SWAP1 POP DUP3 PUSH1 0x20 PUSH1 0x8 MUL DUP3 ADD GT ISZERO PUSH2 0x415 JUMPI PUSH2 0x414 PUSH2 0x3F4 JUMP JUMPDEST JUMPDEST SWAP3 SWAP2 POP POP JUMP JUMPDEST PUSH1 0x0 DUP1 PUSH1 0x0 DUP1 PUSH2 0x160 DUP6 DUP8 SUB SLT ISZERO PUSH2 0x436 JUMPI PUSH2 0x435 PUSH2 0x2F8 JUMP JUMPDEST JUMPDEST PUSH1 0x0 PUSH2 0x444 DUP8 DUP3 DUP9 ADD PUSH2 0x346 JUMP JUMPDEST SWAP5 POP POP PUSH1 0x20 PUSH2 0x455 DUP8 DUP3 DUP9 ADD PUSH2 0x3DF JUMP JUMPDEST SWAP4 POP POP PUSH1 0x40 PUSH2 0x466 DUP8 DUP3 DUP9 ADD PUSH2 0x3DF JUMP JUMPDEST SWAP3 POP POP PUSH1 0x60 PUSH2 0x477 DUP8 DUP3 DUP9 ADD PUSH2 0x3F9 JUMP JUMPDEST SWAP2 POP POP SWAP3 SWAP6 SWAP2 SWAP5 POP SWAP3 POP JUMP JUMPDEST PUSH2 0x48C DUP2 PUSH2 0x3BE JUMP JUMPDEST DUP3 MSTORE POP POP JUMP JUMPDEST PUSH1 0x0 PUSH1 0x20 DUP3 ADD SWAP1 POP PUSH2 0x4A7 PUSH1 0x0 DUP4 ADD DUP5 PUSH2 0x483 JUMP JUMPDEST SWAP3 SWAP2 POP POP JUMP JUMPDEST PUSH1 0x0 DUP2 PUSH1 0x60 SHL SWAP1 POP SWAP2 SWAP1 POP JUMP JUMPDEST PUSH1 0x0 PUSH2 0x4C5 DUP3 PUSH2 0x4AD JUMP JUMPDEST SWAP1 POP SWAP2 SWAP1 POP JUMP JUMPDEST PUSH1 0x0 PUSH2 0x4D7 DUP3 PUSH2 0x4BA JUMP JUMPDEST SWAP1 POP SWAP2 SWAP1 POP JUMP JUMPDEST PUSH2 0x4EF PUSH2 0x4EA DUP3 PUSH2 0x31D JUMP JUMPDEST PUSH2 0x4CC JUMP JUMPDEST DUP3 MSTORE POP POP JUMP JUMPDEST PUSH1 0x0 PUSH2 0x501 DUP3 DUP5 PUSH2 0x4DE JUMP JUMPDEST PUSH1 0x14 DUP3 ADD SWAP2 POP DUP2 SWAP1 POP SWAP3 SWAP2 POP POP JUMP JUMPDEST DUP3 DUP2 DUP4 CALLDATACOPY POP POP POP JUMP JUMPDEST PUSH2 0x526 PUSH2 0x100 DUP4 DUP4 PUSH2 0x510 JUMP JUMPDEST POP POP JUMP JUMPDEST PUSH1 0x0 PUSH2 0x1A0 DUP3 ADD SWAP1 POP PUSH2 0x540 PUSH1 0x0 DUP4 ADD DUP10 PUSH2 0x483 JUMP JUMPDEST PUSH2 0x54D PUSH1 0x20 DUP4 ADD DUP9 PUSH2 0x483 JUMP JUMPDEST PUSH2 0x55A PUSH1 0x40 DUP4 ADD DUP8 PUSH2 0x483 JUMP JUMPDEST PUSH2 0x567 PUSH1 0x60 DUP4 ADD DUP7 PUSH2 0x483 JUMP JUMPDEST PUSH2 0x574 PUSH1 0x80 DUP4 ADD DUP6 PUSH2 0x483 JUMP JUMPDEST PUSH2 0x581 PUSH1 0xA0 DUP4 ADD DUP5 PUSH2 0x519 JUMP JUMPDEST SWAP8 SWAP7 POP POP POP POP POP POP POP JUMP JUMPDEST PUSH1 0x0 DUP2 MLOAD SWAP1 POP SWAP2 SWAP1 POP JUMP JUMPDEST PUSH1 0x0 DUP2 SWAP1 POP SWAP3 SWAP2 POP POP JUMP JUMPDEST PUSH1 0x0 JUMPDEST DUP4 DUP2 LT ISZERO PUSH2 0x5C0 JUMPI DUP1 DUP3 ADD MLOAD DUP2 DUP5 ADD MSTORE PUSH1 0x20 DUP2 ADD SWAP1 POP PUSH2 0x5A5 JUMP JUMPDEST PUSH1 0x0 DUP5 DUP5 ADD MSTORE POP POP POP POP JUMP JUMPDEST PUSH1 0x0 PUSH2 0x5D7 DUP3 PUSH2 0x58C JUMP JUMPDEST PUSH2 0x5E1 DUP2 DUP6 PUSH2 0x597 JUMP JUMPDEST SWAP4 POP PUSH2 0x5F1 DUP2 DUP6 PUSH1 0x20 DUP7 ADD PUSH2 0x5A2 JUMP JUMPDEST DUP1 DUP5 ADD SWAP2 POP POP SWAP3 SWAP2 POP POP JUMP JUMPDEST PUSH1 0x0 PUSH2 0x609 DUP3 DUP5 PUSH2 0x5CC JUMP JUMPDEST SWAP2 POP DUP2 SWAP1 POP SWAP3 SWAP2 POP POP JUMP INVALID LOG2 PUSH5 0x6970667358 0x22 SLT KECCAK256 0xBF 0xAE 0x24 CHAINID 0x2D PUSH10 0x814D81DCD1B46C2F1E80 0xBE PC 0xDE CALL 0x4C MCOPY 0xF8 0xBC PUSH20 0x84DDB34B449E8864736F6C634300081800330000 "},"methodIdentifiers":{"isVerifiedHuman(address)":"0063fa27","verifyHuman(address,uint256,uint256,uint256[8])":"03c44e29"}}}}}